{
  "address": "0xA4fC902fF8Fa3165Ed7760B1c98D8EE1Ac9EA178",
  "abi": [
    {
      "inputs": [
        {
          "internalType": "address",
          "name": "_VRFCoordinator",
          "type": "address"
        },
        {
          "internalType": "address",
          "name": "_LinkToken",
          "type": "address"
        },
        {
          "internalType": "bytes32",
          "name": "_keyhash",
          "type": "bytes32"
        },
        {
          "internalType": "uint16",
          "name": "_fees",
          "type": "uint16"
        }
      ],
      "stateMutability": "nonpayable",
      "type": "constructor"
    },
    {
      "anonymous": false,
      "inputs": [
        {
          "indexed": true,
          "internalType": "address",
          "name": "account",
          "type": "address"
        },
        {
          "indexed": true,
          "internalType": "address",
          "name": "operator",
          "type": "address"
        },
        {
          "indexed": false,
          "internalType": "bool",
          "name": "approved",
          "type": "bool"
        }
      ],
      "name": "ApprovalForAll",
      "type": "event"
    },
    {
      "anonymous": false,
      "inputs": [
        {
          "indexed": true,
          "internalType": "address",
          "name": "operator",
          "type": "address"
        },
        {
          "indexed": true,
          "internalType": "address",
          "name": "from",
          "type": "address"
        },
        {
          "indexed": true,
          "internalType": "address",
          "name": "to",
          "type": "address"
        },
        {
          "indexed": false,
          "internalType": "uint256[]",
          "name": "ids",
          "type": "uint256[]"
        },
        {
          "indexed": false,
          "internalType": "uint256[]",
          "name": "values",
          "type": "uint256[]"
        }
      ],
      "name": "TransferBatch",
      "type": "event"
    },
    {
      "anonymous": false,
      "inputs": [
        {
          "indexed": true,
          "internalType": "address",
          "name": "operator",
          "type": "address"
        },
        {
          "indexed": true,
          "internalType": "address",
          "name": "from",
          "type": "address"
        },
        {
          "indexed": true,
          "internalType": "address",
          "name": "to",
          "type": "address"
        },
        {
          "indexed": false,
          "internalType": "uint256",
          "name": "id",
          "type": "uint256"
        },
        {
          "indexed": false,
          "internalType": "uint256",
          "name": "value",
          "type": "uint256"
        }
      ],
      "name": "TransferSingle",
      "type": "event"
    },
    {
      "anonymous": false,
      "inputs": [
        {
          "indexed": false,
          "internalType": "string",
          "name": "value",
          "type": "string"
        },
        {
          "indexed": true,
          "internalType": "uint256",
          "name": "id",
          "type": "uint256"
        }
      ],
      "name": "URI",
      "type": "event"
    },
    {
      "inputs": [],
      "name": "GOLD",
      "outputs": [
        {
          "internalType": "uint256",
          "name": "",
          "type": "uint256"
        }
      ],
      "stateMutability": "view",
      "type": "function"
    },
    {
      "inputs": [],
      "name": "LinkToken",
      "outputs": [
        {
          "internalType": "address",
          "name": "",
          "type": "address"
        }
      ],
      "stateMutability": "view",
      "type": "function"
    },
    {
      "inputs": [],
      "name": "SILVER",
      "outputs": [
        {
          "internalType": "uint256",
          "name": "",
          "type": "uint256"
        }
      ],
      "stateMutability": "view",
      "type": "function"
    },
    {
      "inputs": [],
      "name": "SWORD",
      "outputs": [
        {
          "internalType": "uint256",
          "name": "",
          "type": "uint256"
        }
      ],
      "stateMutability": "view",
      "type": "function"
    },
    {
      "inputs": [],
      "name": "VRFCoordinator",
      "outputs": [
        {
          "internalType": "address",
          "name": "",
          "type": "address"
        }
      ],
      "stateMutability": "view",
      "type": "function"
    },
    {
      "inputs": [
        {
          "internalType": "address",
          "name": "account",
          "type": "address"
        },
        {
          "internalType": "uint256",
          "name": "id",
          "type": "uint256"
        }
      ],
      "name": "balanceOf",
      "outputs": [
        {
          "internalType": "uint256",
          "name": "",
          "type": "uint256"
        }
      ],
      "stateMutability": "view",
      "type": "function"
    },
    {
      "inputs": [
        {
          "internalType": "address[]",
          "name": "accounts",
          "type": "address[]"
        },
        {
          "internalType": "uint256[]",
          "name": "ids",
          "type": "uint256[]"
        }
      ],
      "name": "balanceOfBatch",
      "outputs": [
        {
          "internalType": "uint256[]",
          "name": "",
          "type": "uint256[]"
        }
      ],
      "stateMutability": "view",
      "type": "function"
    },
    {
      "inputs": [
        {
          "internalType": "address",
          "name": "account",
          "type": "address"
        },
        {
          "internalType": "address",
          "name": "operator",
          "type": "address"
        }
      ],
      "name": "isApprovedForAll",
      "outputs": [
        {
          "internalType": "bool",
          "name": "",
          "type": "bool"
        }
      ],
      "stateMutability": "view",
      "type": "function"
    },
    {
      "inputs": [],
      "name": "name",
      "outputs": [
        {
          "internalType": "string",
          "name": "",
          "type": "string"
        }
      ],
      "stateMutability": "view",
      "type": "function"
    },
    {
      "inputs": [],
      "name": "randomResult",
      "outputs": [
        {
          "internalType": "uint256",
          "name": "",
          "type": "uint256"
        }
      ],
      "stateMutability": "view",
      "type": "function"
    },
    {
      "inputs": [
        {
          "internalType": "bytes32",
          "name": "requestId",
          "type": "bytes32"
        },
        {
          "internalType": "uint256",
          "name": "randomness",
          "type": "uint256"
        }
      ],
      "name": "rawFulfillRandomness",
      "outputs": [],
      "stateMutability": "nonpayable",
      "type": "function"
    },
    {
      "inputs": [
        {
          "internalType": "uint256",
          "name": "itemId",
          "type": "uint256"
        }
      ],
      "name": "redeemResources",
      "outputs": [
        {
          "internalType": "bytes32",
          "name": "",
          "type": "bytes32"
        }
      ],
      "stateMutability": "nonpayable",
      "type": "function"
    },
    {
      "inputs": [
        {
          "internalType": "address",
          "name": "from",
          "type": "address"
        },
        {
          "internalType": "address",
          "name": "to",
          "type": "address"
        },
        {
          "internalType": "uint256[]",
          "name": "ids",
          "type": "uint256[]"
        },
        {
          "internalType": "uint256[]",
          "name": "amounts",
          "type": "uint256[]"
        },
        {
          "internalType": "bytes",
          "name": "data",
          "type": "bytes"
        }
      ],
      "name": "safeBatchTransferFrom",
      "outputs": [],
      "stateMutability": "nonpayable",
      "type": "function"
    },
    {
      "inputs": [
        {
          "internalType": "address",
          "name": "from",
          "type": "address"
        },
        {
          "internalType": "address",
          "name": "to",
          "type": "address"
        },
        {
          "internalType": "uint256",
          "name": "id",
          "type": "uint256"
        },
        {
          "internalType": "uint256",
          "name": "amount",
          "type": "uint256"
        },
        {
          "internalType": "bytes",
          "name": "data",
          "type": "bytes"
        }
      ],
      "name": "safeTransferFrom",
      "outputs": [],
      "stateMutability": "nonpayable",
      "type": "function"
    },
    {
      "inputs": [
        {
          "internalType": "address",
          "name": "operator",
          "type": "address"
        },
        {
          "internalType": "bool",
          "name": "approved",
          "type": "bool"
        }
      ],
      "name": "setApprovalForAll",
      "outputs": [],
      "stateMutability": "nonpayable",
      "type": "function"
    },
    {
      "inputs": [
        {
          "internalType": "bytes4",
          "name": "interfaceId",
          "type": "bytes4"
        }
      ],
      "name": "supportsInterface",
      "outputs": [
        {
          "internalType": "bool",
          "name": "",
          "type": "bool"
        }
      ],
      "stateMutability": "view",
      "type": "function"
    },
    {
      "inputs": [
        {
          "internalType": "uint256",
          "name": "",
          "type": "uint256"
        }
      ],
      "name": "uri",
      "outputs": [
        {
          "internalType": "string",
          "name": "",
          "type": "string"
        }
      ],
      "stateMutability": "view",
      "type": "function"
    }
  ],
  "transactionHash": "0xda7512e9419806c2f14066f37da1d0a5d4ac94dd681460a2f48323ac23a1ecbe",
  "args": [
    "0xa555fC018435bef5A13C6c6870a9d4C11DEC329C",
    "0x84b9B910527Ad5C03A9Ca831909E21e236EA7b06",
    "0xcaf3c3727e033261d383b315559476f48034c13b18f8cafed4d871abe5049186",
    "1000"
  ],
  "solcInputHash": "52aac1defc35892603c439e598629e05",
  "bytecode": "0x610100604052600460c0819052634e4f4d4560e01b60e0908152620000289160059190620006cf565b503480156200003657600080fd5b50604051620025e1380380620025e1833981810160405260808110156200005c57600080fd5b5080516020808301516040808501516060909501518151808301909252601f82527f687474703a2f2f7777772e676f6f676c652e636f6d2f7b69647d2e6a736f6e00938201939093529293909290919084908490620000c26301ffc9a760e01b620001e8565b620000cd816200026d565b620000df636cdb3d1360e11b620001e8565b620000f16303a24d0760e21b620001e8565b506001600160601b0319606092831b811660a052911b16608052604080516020810190915260008082526200012b91309190819062000286565b620001503060016000604051806020016040528060008152506200028660201b60201c565b620001753060026000604051806020016040528060008152506200028660201b60201c565b600980546001600160a01b038087166001600160a01b031992831617909255600a80549286169290911691909117905560068290557d90e40fbeea1d3a4abc8955e946fe31cdcf66f634e100000000000000000061ffff8216046001600160f01b03166007819055505050505062000821565b6001600160e01b0319808216141562000248576040805162461bcd60e51b815260206004820152601c60248201527f4552433136353a20696e76616c696420696e7465726661636520696400000000604482015290519081900360640190fd5b6001600160e01b0319166000908152602081905260409020805460ff19166001179055565b805162000282906003906020840190620006cf565b5050565b6001600160a01b038416620002cd5760405162461bcd60e51b8152600401808060200182810382526021815260200180620025c06021913960400191505060405180910390fd5b6000620002d9620003b5565b90506200030081600087620002ee88620003ba565b620002f988620003ba565b87620003ff565b60008481526001602090815260408083206001600160a01b0389168452825290912054620003399185906200116b62000407821b17901c565b60008581526001602090815260408083206001600160a01b03808b16808652918452828520959095558151898152928301889052815190948616927fc3d58168c5ae7397731d063d5bbf3d657854427343f4c083240f7aacaa2d0f6292908290030190a4620003ae8160008787878762000469565b5050505050565b335b90565b604080516001808252818301909252606091829190602080830190803683370190505090508281600081518110620003ee57fe5b602090810291909101015292915050565b505050505050565b60008282018381101562000462576040805162461bcd60e51b815260206004820152601b60248201527f536166654d6174683a206164646974696f6e206f766572666c6f770000000000604482015290519081900360640190fd5b9392505050565b62000488846001600160a01b0316620006c960201b620011cc1760201c565b15620003ff57836001600160a01b031663f23a6e6187878686866040518663ffffffff1660e01b815260040180866001600160a01b03168152602001856001600160a01b0316815260200184815260200183815260200180602001828103825283818151815260200191508051906020019080838360005b838110156200051a57818101518382015260200162000500565b50505050905090810190601f168015620005485780820380516001836020036101000a031916815260200191505b509650505050505050602060405180830381600087803b1580156200056c57600080fd5b505af19250505080156200059357506040513d60208110156200058e57600080fd5b505160015b6200066f57620005a262000771565b80620005af575062000637565b8060405162461bcd60e51b81526004018080602001828103825283818151815260200191508051906020019080838360005b83811015620005fb578181015183820152602001620005e1565b50505050905090810190601f168015620006295780820380516001836020036101000a031916815260200191505b509250505060405180910390fd5b60405162461bcd60e51b8152600401808060200182810382526034815260200180620025646034913960400191505060405180910390fd5b6001600160e01b0319811663f23a6e6160e01b14620006c05760405162461bcd60e51b8152600401808060200182810382526028815260200180620025986028913960400191505060405180910390fd5b50505050505050565b3b151590565b828054600181600116156101000203166002900490600052602060002090601f016020900481019282601f106200071257805160ff191683800117855562000742565b8280016001018555821562000742579182015b828111156200074257825182559160200191906001019062000725565b506200075092915062000754565b5090565b5b8082111562000750576000815560010162000755565b60e01c90565b600060443d10156200078357620003b7565b600481823e6308c379a06200079982516200076b565b14620007a557620003b7565b6040513d600319016004823e80513d6001600160401b038083116024840183101715620007d65750505050620003b7565b82840192508251915080821115620007f25750505050620003b7565b503d830160208284010111156200080c57505050620003b7565b601f01601f1916810160200160405291505090565b60805160601c60a05160601c611d0f6200085560003980610dfe5280611520525080610cdc52806114f15250611d0f6000f3fe608060405234801561001057600080fd5b506004361061010a5760003560e01c806342619f66116100a257806394985ddd1161007157806394985ddd146105b9578063a22cb465146105dc578063e3e55f081461060a578063e985e9c514610612578063f242432a146106405761010a565b806342619f66146104195780634e1273f4146104215780634f8e2fdf1461059457806394753a101461059c5761010a565b806313dc989f116100de57806313dc989f146102225780632eb2c2d61461022a57806333b60863146103ed5780633e4bee38146104115761010a565b8062fdd58e1461010f57806301ffc9a71461014d57806306fdde03146101885780630e89341c14610205575b600080fd5b61013b6004803603604081101561012557600080fd5b506001600160a01b038135169060200135610709565b60408051918252519081900360200190f35b6101746004803603602081101561016357600080fd5b50356001600160e01b031916610778565b604080519115158252519081900360200190f35b610190610797565b6040805160208082528351818301528351919283929083019185019080838360005b838110156101ca5781810151838201526020016101b2565b50505050905090810190601f1680156101f75780820380516001836020036101000a031916815260200191505b509250505060405180910390f35b6101906004803603602081101561021b57600080fd5b5035610825565b61013b6108bd565b6103eb600480360360a081101561024057600080fd5b6001600160a01b038235811692602081013590911691810190606081016040820135600160201b81111561027357600080fd5b82018360208201111561028557600080fd5b803590602001918460208302840111600160201b831117156102a657600080fd5b9190808060200260200160405190810160405280939291908181526020018383602002808284376000920191909152509295949360208101935035915050600160201b8111156102f557600080fd5b82018360208201111561030757600080fd5b803590602001918460208302840111600160201b8311171561032857600080fd5b9190808060200260200160405190810160405280939291908181526020018383602002808284376000920191909152509295949360208101935035915050600160201b81111561037757600080fd5b82018360208201111561038957600080fd5b803590602001918460018302840111600160201b831117156103aa57600080fd5b91908080601f0160208091040260200160405190810160405280939291908181526020018383808284376000920191909152509295506108c2945050505050565b005b6103f5610bc0565b604080516001600160a01b039092168252519081900360200190f35b61013b610bcf565b61013b610bd4565b6105446004803603604081101561043757600080fd5b810190602081018135600160201b81111561045157600080fd5b82018360208201111561046357600080fd5b803590602001918460208302840111600160201b8311171561048457600080fd5b9190808060200260200160405190810160405280939291908181526020018383602002808284376000920191909152509295949360208101935035915050600160201b8111156104d357600080fd5b8201836020820111156104e557600080fd5b803590602001918460208302840111600160201b8311171561050657600080fd5b919080806020026020016040519081016040528093929190818152602001838360200280828437600092019190915250929550610bda945050505050565b60408051602080825283518183015283519192839290830191858101910280838360005b83811015610580578181015183820152602001610568565b505050509050019250505060405180910390f35b6103f5610cc6565b61013b600480360360208110156105b257600080fd5b5035610cd5565b6103eb600480360360408110156105cf57600080fd5b5080359060200135610df3565b6103eb600480360360408110156105f257600080fd5b506001600160a01b0381351690602001351515610e7e565b61013b610f6d565b6101746004803603604081101561062857600080fd5b506001600160a01b0381358116916020013516610f72565b6103eb600480360360a081101561065657600080fd5b6001600160a01b03823581169260208101359091169160408201359160608101359181019060a081016080820135600160201b81111561069557600080fd5b8201836020820111156106a757600080fd5b803590602001918460018302840111600160201b831117156106c857600080fd5b91908080601f016020809104026020016040519081016040528093929190818152602001838380828437600092019190915250929550610fa0945050505050565b60006001600160a01b0383166107505760405162461bcd60e51b815260040180806020018281038252602b815260200180611b3f602b913960400191505060405180910390fd5b5060009081526001602090815260408083206001600160a01b03949094168352929052205490565b6001600160e01b03191660009081526020819052604090205460ff1690565b6005805460408051602060026001851615610100026000190190941693909304601f8101849004840282018401909252818152929183018282801561081d5780601f106107f25761010080835404028352916020019161081d565b820191906000526020600020905b81548152906001019060200180831161080057829003601f168201915b505050505081565b60038054604080516020601f60026000196101006001881615020190951694909404938401819004810282018101909252828152606093909290918301828280156108b15780601f10610886576101008083540402835291602001916108b1565b820191906000526020600020905b81548152906001019060200180831161089457829003601f168201915b50505050509050919050565b600281565b81518351146109025760405162461bcd60e51b8152600401808060200182810382526028815260200180611c916028913960400191505060405180910390fd5b6001600160a01b0384166109475760405162461bcd60e51b8152600401808060200182810382526025815260200180611bbe6025913960400191505060405180910390fd5b61094f6111d2565b6001600160a01b0316856001600160a01b0316148061097a575061097a856109756111d2565b610f72565b6109b55760405162461bcd60e51b8152600401808060200182810382526032815260200180611be36032913960400191505060405180910390fd5b60006109bf6111d2565b90506109cf818787878787610bb8565b60005b8451811015610ad05760008582815181106109e957fe5b602002602001015190506000858381518110610a0157fe5b60200260200101519050610a6e816040518060600160405280602a8152602001611c15602a91396001600086815260200190815260200160002060008d6001600160a01b03166001600160a01b03168152602001908152602001600020546111d79092919063ffffffff16565b60008381526001602090815260408083206001600160a01b038e811685529252808320939093558a1681522054610aa5908261116b565b60009283526001602081815260408086206001600160a01b038d1687529091529093205550016109d2565b50846001600160a01b0316866001600160a01b0316826001600160a01b03167f4a39dc06d4c0dbc64b70af90fd698a233a518aa5d07e595d983b8c0526c8f7fb8787604051808060200180602001838103835285818151815260200191508051906020019060200280838360005b83811015610b56578181015183820152602001610b3e565b50505050905001838103825284818151815260200191508051906020019060200280838360005b83811015610b95578181015183820152602001610b7d565b5050505090500194505050505060405180910390a4610bb881878787878761126e565b505050505050565b6009546001600160a01b031681565b600081565b60085481565b60608151835114610c1c5760405162461bcd60e51b8152600401808060200182810382526029815260200180611c686029913960400191505060405180910390fd5b6060835167ffffffffffffffff81118015610c3657600080fd5b50604051908082528060200260200182016040528015610c60578160200160208202803683370190505b50905060005b8451811015610cbe57610c9f858281518110610c7e57fe5b6020026020010151858381518110610c9257fe5b6020026020010151610709565b828281518110610cab57fe5b6020908102919091010152600101610c66565b509392505050565b600a546001600160a01b031681565b60006007547f00000000000000000000000000000000000000000000000000000000000000006001600160a01b03166370a08231306040518263ffffffff1660e01b815260040180826001600160a01b0316815260200191505060206040518083038186803b158015610d4757600080fd5b505afa158015610d5b573d6000803e3d6000fd5b505050506040513d6020811015610d7157600080fd5b50511015610db05760405162461bcd60e51b815260040180806020018281038252602b815260200180611b93602b913960400191505060405180910390fd5b6000610dc06006546007546114ed565b6000818152600b60209081526040808320879055600c909152902080546001600160a01b03191633179055915050919050565b336001600160a01b037f00000000000000000000000000000000000000000000000000000000000000001614610e70576040805162461bcd60e51b815260206004820152601f60248201527f4f6e6c7920565246436f6f7264696e61746f722063616e2066756c66696c6c00604482015290519081900360640190fd5b610e7a82826116a0565b5050565b816001600160a01b0316610e906111d2565b6001600160a01b03161415610ed65760405162461bcd60e51b8152600401808060200182810382526029815260200180611c3f6029913960400191505060405180910390fd5b8060026000610ee36111d2565b6001600160a01b03908116825260208083019390935260409182016000908120918716808252919093529120805460ff191692151592909217909155610f276111d2565b6001600160a01b03167f17307eab39ab6107e8899845ad3d59bd9653f200f220920489ca2b5937696c318360405180821515815260200191505060405180910390a35050565b600181565b6001600160a01b03918216600090815260026020908152604080832093909416825291909152205460ff1690565b6001600160a01b038416610fe55760405162461bcd60e51b8152600401808060200182810382526025815260200180611bbe6025913960400191505060405180910390fd5b610fed6111d2565b6001600160a01b0316856001600160a01b031614806110135750611013856109756111d2565b61104e5760405162461bcd60e51b8152600401808060200182810382526029815260200180611b6a6029913960400191505060405180910390fd5b60006110586111d2565b905061107881878761106988611707565b61107288611707565b87610bb8565b6110bf836040518060600160405280602a8152602001611c15602a913960008781526001602090815260408083206001600160a01b038d16845290915290205491906111d7565b60008581526001602090815260408083206001600160a01b038b811685529252808320939093558716815220546110f6908461116b565b60008581526001602090815260408083206001600160a01b03808b168086529184529382902094909455805188815291820187905280518a8416938616927fc3d58168c5ae7397731d063d5bbf3d657854427343f4c083240f7aacaa2d0f6292908290030190a4610bb881878787878761174b565b6000828201838110156111c5576040805162461bcd60e51b815260206004820152601b60248201527f536166654d6174683a206164646974696f6e206f766572666c6f770000000000604482015290519081900360640190fd5b9392505050565b3b151590565b335b90565b600081848411156112665760405162461bcd60e51b81526004018080602001828103825283818151815260200191508051906020019080838360005b8381101561122b578181015183820152602001611213565b50505050905090810190601f1680156112585780820380516001836020036101000a031916815260200191505b509250505060405180910390fd5b505050900390565b611280846001600160a01b03166111cc565b15610bb857836001600160a01b031663bc197c8187878686866040518663ffffffff1660e01b815260040180866001600160a01b03168152602001856001600160a01b03168152602001806020018060200180602001848103845287818151815260200191508051906020019060200280838360005b8381101561130e5781810151838201526020016112f6565b50505050905001848103835286818151815260200191508051906020019060200280838360005b8381101561134d578181015183820152602001611335565b50505050905001848103825285818151815260200191508051906020019080838360005b83811015611389578181015183820152602001611371565b50505050905090810190601f1680156113b65780820380516001836020036101000a031916815260200191505b5098505050505050505050602060405180830381600087803b1580156113db57600080fd5b505af192505050801561140057506040513d60208110156113fb57600080fd5b505160015b6114955761140c611a3d565b80611417575061145e565b60405162461bcd60e51b815260206004820181815283516024840152835184939192839260440191908501908083836000831561122b578181015183820152602001611213565b60405162461bcd60e51b8152600401808060200182810382526034815260200180611ae36034913960400191505060405180910390fd5b6001600160e01b0319811663bc197c8160e01b146114e45760405162461bcd60e51b8152600401808060200182810382526028815260200180611b176028913960400191505060405180910390fd5b50505050505050565b60007f00000000000000000000000000000000000000000000000000000000000000006001600160a01b0316634000aea07f00000000000000000000000000000000000000000000000000000000000000008486600060405160200180838152602001828152602001925050506040516020818303038152906040526040518463ffffffff1660e01b815260040180846001600160a01b0316815260200183815260200180602001828103825283818151815260200191508051906020019080838360005b838110156115ca5781810151838201526020016115b2565b50505050905090810190601f1680156115f75780820380516001836020036101000a031916815260200191505b50945050505050602060405180830381600087803b15801561161857600080fd5b505af115801561162c573d6000803e3d6000fd5b505050506040513d602081101561164257600080fd5b5050600083815260046020526040812054611662908590839030906118bc565b60008581526004602052604090205490915061167f90600161116b565b6000858152600460205260409020556116988482611903565b949350505050565b6064810660088190556000906014106116ba5760006116bd565b600a5b6000848152600c6020908152604080832054600b835281842054825193840190925292825260ff939093169350611702926001600160a01b039092169190849061192f565b505050565b60408051600180825281830190925260609182919060208083019080368337019050509050828160008151811061173a57fe5b602090810291909101015292915050565b61175d846001600160a01b03166111cc565b15610bb857836001600160a01b031663f23a6e6187878686866040518663ffffffff1660e01b815260040180866001600160a01b03168152602001856001600160a01b0316815260200184815260200183815260200180602001828103825283818151815260200191508051906020019080838360005b838110156117ec5781810151838201526020016117d4565b50505050905090810190601f1680156118195780820380516001836020036101000a031916815260200191505b509650505050505050602060405180830381600087803b15801561183c57600080fd5b505af192505050801561186157506040513d602081101561185c57600080fd5b505160015b61186d5761140c611a3d565b6001600160e01b0319811663f23a6e6160e01b146114e45760405162461bcd60e51b8152600401808060200182810382526028815260200180611b176028913960400191505060405180910390fd5b60408051602080820196909652808201949094526001600160a01b039290921660608401526080808401919091528151808403909101815260a09092019052805191012090565b604080516020808201949094528082019290925280518083038201815260609092019052805191012090565b6001600160a01b0384166119745760405162461bcd60e51b8152600401808060200182810382526021815260200180611cb96021913960400191505060405180910390fd5b600061197e6111d2565b90506119908160008761106988611707565b60008481526001602090815260408083206001600160a01b03891684529091529020546119bd908461116b565b60008581526001602090815260408083206001600160a01b03808b16808652918452828520959095558151898152928301889052815190948616927fc3d58168c5ae7397731d063d5bbf3d657854427343f4c083240f7aacaa2d0f6292908290030190a4611a308160008787878761174b565b5050505050565b60e01c90565b600060443d1015611a4d576111d4565b600481823e6308c379a0611a618251611a37565b14611a6b576111d4565b6040513d600319016004823e80513d67ffffffffffffffff8160248401118184111715611a9b57505050506111d4565b82840192508251915080821115611ab557505050506111d4565b503d83016020828401011115611acd575050506111d4565b601f01601f191681016020016040529150509056fe455243313135353a207472616e7366657220746f206e6f6e2045524331313535526563656976657220696d706c656d656e746572455243313135353a204552433131353552656365697665722072656a656374656420746f6b656e73455243313135353a2062616c616e636520717565727920666f7220746865207a65726f2061646472657373455243313135353a2063616c6c6572206973206e6f74206f776e6572206e6f7220617070726f7665644e6f7420656e6f756768204c494e4b202d2066696c6c20636f6e7472616374207769746820666175636574455243313135353a207472616e7366657220746f20746865207a65726f2061646472657373455243313135353a207472616e736665722063616c6c6572206973206e6f74206f776e6572206e6f7220617070726f766564455243313135353a20696e73756666696369656e742062616c616e636520666f72207472616e73666572455243313135353a2073657474696e6720617070726f76616c2073746174757320666f722073656c66455243313135353a206163636f756e747320616e6420696473206c656e677468206d69736d61746368455243313135353a2069647320616e6420616d6f756e7473206c656e677468206d69736d61746368455243313135353a206d696e7420746f20746865207a65726f2061646472657373a2646970667358221220b87efd8cc7b8a09f9a25fb8552d7e771fca8b465614a0cc999fb27153624d7f764736f6c634300060c0033455243313135353a207472616e7366657220746f206e6f6e2045524331313535526563656976657220696d706c656d656e746572455243313135353a204552433131353552656365697665722072656a656374656420746f6b656e73455243313135353a206d696e7420746f20746865207a65726f2061646472657373",
  "devdoc": {
    "kind": "dev",
    "methods": {
      "balanceOf(address,uint256)": {
        "details": "See {IERC1155-balanceOf}. Requirements: - `account` cannot be the zero address."
      },
      "balanceOfBatch(address[],uint256[])": {
        "details": "See {IERC1155-balanceOfBatch}. Requirements: - `accounts` and `ids` must have the same length."
      },
      "isApprovedForAll(address,address)": {
        "details": "See {IERC1155-isApprovedForAll}."
      },
      "safeBatchTransferFrom(address,address,uint256[],uint256[],bytes)": {
        "details": "See {IERC1155-safeBatchTransferFrom}."
      },
      "safeTransferFrom(address,address,uint256,uint256,bytes)": {
        "details": "See {IERC1155-safeTransferFrom}."
      },
      "setApprovalForAll(address,bool)": {
        "details": "See {IERC1155-setApprovalForAll}."
      },
      "supportsInterface(bytes4)": {
        "details": "See {IERC165-supportsInterface}. Time complexity O(1), guaranteed to always use less than 30 000 gas."
      },
      "uri(uint256)": {
        "details": "See {IERC1155MetadataURI-uri}. This implementation returns the same URI for *all* token types. It relies on the token type ID substitution mechanism https://eips.ethereum.org/EIPS/eip-1155#metadata[defined in the EIP]. Clients calling this function must replace the `\\{id\\}` substring with the actual token type ID."
      }
    },
    "version": 1
  },
  "userdoc": {
    "kind": "user",
    "methods": {},
    "notice": "Constructor inherits VRFConsumerBase Network: Rinkeby Chainlink VRF Coordinator address: 0xb3dCcb4Cf7a26f6cf6B120Cf5A73875B7BBc655B LINK token address:                0x01BE23585060835E02B77ef475b0Cc51aA1e0709 Key Hash: 0x2ed0feb3e7fd2022120aa84fab1945545a9f2ffc9076fd6156fa96eaff4c1311",
    "version": 1
  },
  "storageLayout": {
    "storage": [
      {
        "astId": 422,
        "contract": "contracts/NFTContract.sol:NFTContract",
        "label": "_supportedInterfaces",
        "offset": 0,
        "slot": "0",
        "type": "t_mapping(t_bytes4,t_bool)"
      },
      {
        "astId": 862,
        "contract": "contracts/NFTContract.sol:NFTContract",
        "label": "_balances",
        "offset": 0,
        "slot": "1",
        "type": "t_mapping(t_uint256,t_mapping(t_address,t_uint256))"
      },
      {
        "astId": 868,
        "contract": "contracts/NFTContract.sol:NFTContract",
        "label": "_operatorApprovals",
        "offset": 0,
        "slot": "2",
        "type": "t_mapping(t_address,t_mapping(t_address,t_bool))"
      },
      {
        "astId": 870,
        "contract": "contracts/NFTContract.sol:NFTContract",
        "label": "_uri",
        "offset": 0,
        "slot": "3",
        "type": "t_string_storage"
      },
      {
        "astId": 83,
        "contract": "contracts/NFTContract.sol:NFTContract",
        "label": "nonces",
        "offset": 0,
        "slot": "4",
        "type": "t_mapping(t_bytes32,t_uint256)"
      },
      {
        "astId": 2349,
        "contract": "contracts/NFTContract.sol:NFTContract",
        "label": "name",
        "offset": 0,
        "slot": "5",
        "type": "t_string_storage"
      },
      {
        "astId": 2354,
        "contract": "contracts/NFTContract.sol:NFTContract",
        "label": "keyHash",
        "offset": 0,
        "slot": "6",
        "type": "t_bytes32"
      },
      {
        "astId": 2356,
        "contract": "contracts/NFTContract.sol:NFTContract",
        "label": "fee",
        "offset": 0,
        "slot": "7",
        "type": "t_uint256"
      },
      {
        "astId": 2358,
        "contract": "contracts/NFTContract.sol:NFTContract",
        "label": "randomResult",
        "offset": 0,
        "slot": "8",
        "type": "t_uint256"
      },
      {
        "astId": 2360,
        "contract": "contracts/NFTContract.sol:NFTContract",
        "label": "VRFCoordinator",
        "offset": 0,
        "slot": "9",
        "type": "t_address"
      },
      {
        "astId": 2362,
        "contract": "contracts/NFTContract.sol:NFTContract",
        "label": "LinkToken",
        "offset": 0,
        "slot": "10",
        "type": "t_address"
      },
      {
        "astId": 2375,
        "contract": "contracts/NFTContract.sol:NFTContract",
        "label": "requestToItem",
        "offset": 0,
        "slot": "11",
        "type": "t_mapping(t_bytes32,t_uint256)"
      },
      {
        "astId": 2379,
        "contract": "contracts/NFTContract.sol:NFTContract",
        "label": "requestToSender",
        "offset": 0,
        "slot": "12",
        "type": "t_mapping(t_bytes32,t_address)"
      },
      {
        "astId": 2383,
        "contract": "contracts/NFTContract.sol:NFTContract",
        "label": "requestToTokenId",
        "offset": 0,
        "slot": "13",
        "type": "t_mapping(t_bytes32,t_uint256)"
      }
    ],
    "types": {
      "t_address": {
        "encoding": "inplace",
        "label": "address",
        "numberOfBytes": "20"
      },
      "t_bool": {
        "encoding": "inplace",
        "label": "bool",
        "numberOfBytes": "1"
      },
      "t_bytes32": {
        "encoding": "inplace",
        "label": "bytes32",
        "numberOfBytes": "32"
      },
      "t_bytes4": {
        "encoding": "inplace",
        "label": "bytes4",
        "numberOfBytes": "4"
      },
      "t_mapping(t_address,t_bool)": {
        "encoding": "mapping",
        "key": "t_address",
        "label": "mapping(address => bool)",
        "numberOfBytes": "32",
        "value": "t_bool"
      },
      "t_mapping(t_address,t_mapping(t_address,t_bool))": {
        "encoding": "mapping",
        "key": "t_address",
        "label": "mapping(address => mapping(address => bool))",
        "numberOfBytes": "32",
        "value": "t_mapping(t_address,t_bool)"
      },
      "t_mapping(t_address,t_uint256)": {
        "encoding": "mapping",
        "key": "t_address",
        "label": "mapping(address => uint256)",
        "numberOfBytes": "32",
        "value": "t_uint256"
      },
      "t_mapping(t_bytes32,t_address)": {
        "encoding": "mapping",
        "key": "t_bytes32",
        "label": "mapping(bytes32 => address)",
        "numberOfBytes": "32",
        "value": "t_address"
      },
      "t_mapping(t_bytes32,t_uint256)": {
        "encoding": "mapping",
        "key": "t_bytes32",
        "label": "mapping(bytes32 => uint256)",
        "numberOfBytes": "32",
        "value": "t_uint256"
      },
      "t_mapping(t_bytes4,t_bool)": {
        "encoding": "mapping",
        "key": "t_bytes4",
        "label": "mapping(bytes4 => bool)",
        "numberOfBytes": "32",
        "value": "t_bool"
      },
      "t_mapping(t_uint256,t_mapping(t_address,t_uint256))": {
        "encoding": "mapping",
        "key": "t_uint256",
        "label": "mapping(uint256 => mapping(address => uint256))",
        "numberOfBytes": "32",
        "value": "t_mapping(t_address,t_uint256)"
      },
      "t_string_storage": {
        "encoding": "bytes",
        "label": "string",
        "numberOfBytes": "32"
      },
      "t_uint256": {
        "encoding": "inplace",
        "label": "uint256",
        "numberOfBytes": "32"
      }
    }
  }
}